{
  "contractName": "JobPost",
  "abi": [
    {
      "constant": true,
      "inputs": [],
      "name": "jobCount",
      "outputs": [
        {
          "internalType": "uint256",
          "name": "",
          "type": "uint256"
        }
      ],
      "payable": false,
      "stateMutability": "view",
      "type": "function"
    }
  ],
  "bytecode": "0x608060405260008055348015601357600080fd5b506084806100226000396000f3fe6080604052348015600f57600080fd5b506004361060285760003560e01c80634c5d8a0f14602d575b600080fd5b60336049565b6040518082815260200191505060405180910390f35b6000548156fea265627a7a723158200a452b7d31dcf0bb34ef7882de0147f4be4fa6695ea350a2891832b081bb951d64736f6c63430005100032",
  "source": "pragma solidity ^0.5.0;\r\n\r\n// create a contract\r\ncontract JobPost {\r\n\t//create a state variable to keep track of number of jobs\r\n\tuint public jobCount = 0; //public allows us to read the variable\r\n}",
  "sourcePath": "C:/Users/Gary/Desktop/BlockChain/jobPosting/contracts/JobPost.sol",
  "compiler": {
    "name": "solc",
    "version": "0.5.16+commit.9c3226ce.Emscripten.clang"
  },
  "schemaVersion": "3.2.4",
  "updatedAt": "2020-10-04T01:42:48.159Z",
  "networkType": "ethereum",
  "devdoc": {
    "methods": {}
  },
  "userdoc": {
    "methods": {}
  }
}