{
  "contractName": "JobPost",
  "abi": [
    {
      "inputs": [],
      "payable": false,
      "stateMutability": "nonpayable",
      "type": "constructor"
    },
    {
      "constant": true,
      "inputs": [],
      "name": "jobCount",
      "outputs": [
        {
          "internalType": "uint256",
          "name": "",
          "type": "uint256"
        }
      ],
      "payable": false,
      "stateMutability": "view",
      "type": "function"
    },
    {
      "constant": true,
      "inputs": [
        {
          "internalType": "uint256",
          "name": "",
          "type": "uint256"
        }
      ],
      "name": "jobs",
      "outputs": [
        {
          "internalType": "uint256",
          "name": "id",
          "type": "uint256"
        },
        {
          "internalType": "string",
          "name": "jobDescription",
          "type": "string"
        },
        {
          "internalType": "bool",
          "name": "jobRemove",
          "type": "bool"
        }
      ],
      "payable": false,
      "stateMutability": "view",
      "type": "function"
    },
    {
      "constant": false,
      "inputs": [
        {
          "internalType": "string",
          "name": "jobDescription",
          "type": "string"
        }
      ],
      "name": "createJob",
      "outputs": [],
      "payable": false,
      "stateMutability": "nonpayable",
      "type": "function"
    }
  ],
  "bytecode": "0x60806040526000805534801561001457600080fd5b506100596040518060400160405280601a81526020017f4a61766120646576656c6f70657220696e204175636b6c616e6400000000000081525061005e60201b60201c565b610195565b6000808154809291906001019190505550604051806060016040528060005481526020018281526020016000151581525060016000805481526020019081526020016000206000820151816000015560208201518160010190805190602001906100c99291906100f0565b5060408201518160020160006101000a81548160ff02191690831515021790555090505050565b828054600181600116156101000203166002900490600052602060002090601f016020900481019282601f1061013157805160ff191683800117855561015f565b8280016001018555821561015f579182015b8281111561015e578251825591602001919060010190610143565b5b50905061016c9190610170565b5090565b61019291905b8082111561018e576000816000905550600101610176565b5090565b90565b610419806101a46000396000f3fe608060405234801561001057600080fd5b50600436106100415760003560e01c8063180aedf3146100465780634c5d8a0f146100ff578063aafa944e1461011d575b600080fd5b6100726004803603602081101561005c57600080fd5b81019080803590602001909291905050506101d8565b604051808481526020018060200183151515158152602001828103825284818151815260200191508051906020019080838360005b838110156100c25780820151818401526020810190506100a7565b50505050905090810190601f1680156100ef5780820380516001836020036101000a031916815260200191505b5094505050505060405180910390f35b6101076102a7565b6040518082815260200191505060405180910390f35b6101d66004803603602081101561013357600080fd5b810190808035906020019064010000000081111561015057600080fd5b82018360208201111561016257600080fd5b8035906020019184600183028401116401000000008311171561018457600080fd5b91908080601f016020809104026020016040519081016040528093929190818152602001838380828437600081840152601f19601f8201169050808301925050505050505091929192905050506102ad565b005b6001602052806000526040600020600091509050806000015490806001018054600181600116156101000203166002900480601f01602080910402602001604051908101604052809291908181526020018280546001816001161561010002031660029004801561028a5780601f1061025f5761010080835404028352916020019161028a565b820191906000526020600020905b81548152906001019060200180831161026d57829003601f168201915b5050505050908060020160009054906101000a900460ff16905083565b60005481565b60008081548092919060010191905055506040518060600160405280600054815260200182815260200160001515815250600160008054815260200190815260200160002060008201518160000155602082015181600101908051906020019061031892919061033f565b5060408201518160020160006101000a81548160ff02191690831515021790555090505050565b828054600181600116156101000203166002900490600052602060002090601f016020900481019282601f1061038057805160ff19168380011785556103ae565b828001600101855582156103ae579182015b828111156103ad578251825591602001919060010190610392565b5b5090506103bb91906103bf565b5090565b6103e191905b808211156103dd5760008160009055506001016103c5565b5090565b9056fea265627a7a723158201b009c625cc02fe4d3ed32c043004ce322ed5d365d2a35eb6529c5babab9266264736f6c63430005100032",
  "source": "pragma solidity ^0.5.0;\r\n\r\n// create a contract\r\ncontract JobPost {\r\n\t//create a state variable to keep track of number of jobs\r\n\tuint public jobCount = 0; //public allows us to read the variable\r\n\r\n\t//data structure of Job\r\n\tstruct Job{\r\n\t\tuint id;\r\n\t\tstring jobDescription;\r\n\t\tbool jobRemove;\r\n\t}\r\n\r\n\t// an array like variable to store jobs\r\n\tmapping(uint => Job) public jobs;\r\n\r\n\t// constructor\r\n\tconstructor() public{\r\n\t\tcreateJob(\"Java developer in Auckland\");\r\n\t}\r\n\r\n\t//function to create job\r\n\tfunction createJob(string memory jobDescription) public{\r\n\t\tjobCount++;\r\n\t\tjobs[jobCount] = Job(jobCount, jobDescription, false);\r\n\t}\r\n}",
  "sourcePath": "C:/Users/Gary/Desktop/BlockChain/jobPosting/contracts/JobPost.sol",
  "compiler": {
    "name": "solc",
    "version": "0.5.16+commit.9c3226ce.Emscripten.clang"
  },
  "schemaVersion": "3.2.4",
  "updatedAt": "2020-10-04T03:37:16.582Z",
  "networkType": "ethereum",
  "devdoc": {
    "methods": {}
  },
  "userdoc": {
    "methods": {}
  }
}