{
  "contractName": "JobPost",
  "abi": [
    {
      "inputs": [],
      "payable": false,
      "stateMutability": "nonpayable",
      "type": "constructor"
    },
    {
      "anonymous": false,
      "inputs": [
        {
          "indexed": false,
          "internalType": "uint256",
          "name": "id",
          "type": "uint256"
        },
        {
          "indexed": false,
          "internalType": "string",
          "name": "jobDescripton",
          "type": "string"
        },
        {
          "indexed": false,
          "internalType": "bool",
          "name": "jobRemove",
          "type": "bool"
        }
      ],
      "name": "JobCreated",
      "type": "event"
    },
    {
      "anonymous": false,
      "inputs": [
        {
          "indexed": false,
          "internalType": "uint256",
          "name": "id",
          "type": "uint256"
        },
        {
          "indexed": false,
          "internalType": "bool",
          "name": "jobRemove",
          "type": "bool"
        }
      ],
      "name": "jobToggleRemove",
      "type": "event"
    },
    {
      "constant": true,
      "inputs": [],
      "name": "jobCount",
      "outputs": [
        {
          "internalType": "uint256",
          "name": "",
          "type": "uint256"
        }
      ],
      "payable": false,
      "stateMutability": "view",
      "type": "function"
    },
    {
      "constant": true,
      "inputs": [
        {
          "internalType": "uint256",
          "name": "",
          "type": "uint256"
        }
      ],
      "name": "jobs",
      "outputs": [
        {
          "internalType": "uint256",
          "name": "id",
          "type": "uint256"
        },
        {
          "internalType": "string",
          "name": "jobDescription",
          "type": "string"
        },
        {
          "internalType": "bool",
          "name": "jobRemove",
          "type": "bool"
        }
      ],
      "payable": false,
      "stateMutability": "view",
      "type": "function"
    },
    {
      "constant": false,
      "inputs": [
        {
          "internalType": "string",
          "name": "_jobDescription",
          "type": "string"
        }
      ],
      "name": "createJob",
      "outputs": [],
      "payable": false,
      "stateMutability": "nonpayable",
      "type": "function"
    },
    {
      "constant": false,
      "inputs": [
        {
          "internalType": "uint256",
          "name": "_id",
          "type": "uint256"
        }
      ],
      "name": "jobToggle",
      "outputs": [],
      "payable": false,
      "stateMutability": "nonpayable",
      "type": "function"
    }
  ],
  "bytecode": "0x60806040526000805534801561001457600080fd5b506100596040518060400160405280601a81526020017f4a61766120646576656c6f70657220696e204175636b6c616e6400000000000081525061005e60201b60201c565b610248565b6000808154809291906001019190505550604051806060016040528060005481526020018281526020016000151581525060016000805481526020019081526020016000206000820151816000015560208201518160010190805190602001906100c99291906101a3565b5060408201518160020160006101000a81548160ff0219169083151502179055509050507fa12b3a8b3e18372a2df4e478acd670adc7582c5396f43f31c82ed0293066c99a600054826000604051808481526020018060200183151515158152602001828103825284818151815260200191508051906020019080838360005b83811015610164578082015181840152602081019050610149565b50505050905090810190601f1680156101915780820380516001836020036101000a031916815260200191505b5094505050505060405180910390a150565b828054600181600116156101000203166002900490600052602060002090601f016020900481019282601f106101e457805160ff1916838001178555610212565b82800160010185558215610212579182015b828111156102115782518255916020019190600101906101f6565b5b50905061021f9190610223565b5090565b61024591905b80821115610241576000816000905550600101610229565b5090565b90565b6106d5806102576000396000f3fe608060405234801561001057600080fd5b506004361061004c5760003560e01c8063180aedf3146100515780634c5d8a0f1461010a578063aafa944e14610128578063e4be0ace146101e3575b600080fd5b61007d6004803603602081101561006757600080fd5b8101908080359060200190929190505050610211565b604051808481526020018060200183151515158152602001828103825284818151815260200191508051906020019080838360005b838110156100cd5780820151818401526020810190506100b2565b50505050905090810190601f1680156100fa5780820380516001836020036101000a031916815260200191505b5094505050505060405180910390f35b6101126102e0565b6040518082815260200191505060405180910390f35b6101e16004803603602081101561013e57600080fd5b810190808035906020019064010000000081111561015b57600080fd5b82018360208201111561016d57600080fd5b8035906020019184600183028401116401000000008311171561018f57600080fd5b91908080601f016020809104026020016040519081016040528093929190818152602001838380828437600081840152601f19601f8201169050808301925050505050505091929192905050506102e6565b005b61020f600480360360208110156101f957600080fd5b810190808035906020019092919050505061042b565b005b6001602052806000526040600020600091509050806000015490806001018054600181600116156101000203166002900480601f0160208091040260200160405190810160405280929190818152602001828054600181600116156101000203166002900480156102c35780601f10610298576101008083540402835291602001916102c3565b820191906000526020600020905b8154815290600101906020018083116102a657829003601f168201915b5050505050908060020160009054906101000a900460ff16905083565b60005481565b6000808154809291906001019190505550604051806060016040528060005481526020018281526020016000151581525060016000805481526020019081526020016000206000820151816000015560208201518160010190805190602001906103519291906105d8565b5060408201518160020160006101000a81548160ff0219169083151502179055509050507fa12b3a8b3e18372a2df4e478acd670adc7582c5396f43f31c82ed0293066c99a600054826000604051808481526020018060200183151515158152602001828103825284818151815260200191508051906020019080838360005b838110156103ec5780820151818401526020810190506103d1565b50505050905090810190601f1680156104195780820380516001836020036101000a031916815260200191505b5094505050505060405180910390a150565b610433610658565b6001600083815260200190815260200160002060405180606001604052908160008201548152602001600182018054600181600116156101000203166002900480601f0160208091040260200160405190810160405280929190818152602001828054600181600116156101000203166002900480156104f45780601f106104c9576101008083540402835291602001916104f4565b820191906000526020600020905b8154815290600101906020018083116104d757829003601f168201915b505050505081526020016002820160009054906101000a900460ff161515151581525050905080604001511581604001901515908115158152505080600160008481526020019081526020016000206000820151816000015560208201518160010190805190602001906105699291906105d8565b5060408201518160020160006101000a81548160ff0219169083151502179055509050507fd259f9febec19094e59d21092a6c10abaf9a06ed6d183c52c72cd670efc65e7b82826040015160405180838152602001821515151581526020019250505060405180910390a15050565b828054600181600116156101000203166002900490600052602060002090601f016020900481019282601f1061061957805160ff1916838001178555610647565b82800160010185558215610647579182015b8281111561064657825182559160200191906001019061062b565b5b509050610654919061067b565b5090565b604051806060016040528060008152602001606081526020016000151581525090565b61069d91905b80821115610699576000816000905550600101610681565b5090565b9056fea265627a7a723158207189cddbcf29234fa17973df8eaa48d7f232641f6f1ceecb6183600d1456fdcc64736f6c63430005100032",
  "source": "pragma solidity ^0.5.0;\r\n\r\n// create a contract\r\ncontract JobPost {\r\n\t//create a state variable to keep track of number of jobs\r\n\tuint public jobCount = 0; //public allows us to read the variable\r\n\r\n\t//data structure of Job\r\n\tstruct Job{\r\n\t\tuint id;\r\n\t\tstring jobDescription;\r\n\t\tbool jobRemove;\r\n\t}\r\n\r\n\t// an array like variable to store jobs\r\n\tmapping(uint => Job) public jobs;\r\n\r\n\tevent JobCreated(\r\n\t\tuint id,\r\n\t\tstring jobDescripton,\r\n\t\tbool jobRemove\r\n\t);\r\n\r\n\tevent jobToggleRemove(\r\n\t\tuint id,\r\n\t\tbool jobRemove\r\n\t);\r\n\t// constructor\r\n\tconstructor() public{\r\n\t\tcreateJob(\"Java developer in Auckland\");\r\n\t}\r\n\r\n\t//function to create job\r\n\tfunction createJob(string memory _jobDescription) public{\r\n\t\tjobCount++;\r\n\t\tjobs[jobCount] = Job(jobCount, _jobDescription, false);\r\n\t\temit JobCreated(jobCount, _jobDescription, false);\r\n\t}\r\n\r\n\t//toggle jobToggle\r\n\tfunction jobToggle(uint _id)public{\r\n\t\tJob memory _job = jobs[_id];\r\n\t\t_job.jobRemove = !_job.jobRemove;\r\n\t\tjobs[_id] = _job;\r\n\t\temit jobToggleRemove(_id, _job.jobRemove);\r\n\t}\r\n}",
  "sourcePath": "C:/Users/Gary/Desktop/BlockChain/jobPosting/contracts/JobPost.sol",
  "compiler": {
    "name": "solc",
    "version": "0.5.16+commit.9c3226ce.Emscripten.clang"
  },
  "schemaVersion": "3.2.4",
  "updatedAt": "2020-10-05T07:00:49.362Z",
  "networkType": "ethereum",
  "devdoc": {
    "methods": {}
  },
  "userdoc": {
    "methods": {}
  }
}